:020000040800F2
:10000000704F0020D90100083F3C0008271F00085E
:100010003D3C0008F10C00086D4D00080000000098
:10002000000000000000000000000000813D00080A
:10003000F30C000800000000A53C0008A1490008DE
:10004000F3010008F3010008F3010008F3010008C0
:10005000F3010008F3010008F3010008F3010008B0
:10006000F3010008F3010008F3010008F3010008A0
:10007000F3010008F3010008F3010008F301000890
:10008000F3010008F3010008F3010008F301000880
:10009000F3010008F3010008F3010008F301000870
:1000A000A14A0008F3010008F3010008F301000869
:1000B000F3010008A34A0008F3010008351F0008F7
:1000C000291F0008F3010008F3010008F3010008EC
:1000D000F3010008F94C0008F3010008F3010008DF
:1000E000F50C0008F3010008F3010008F301000813
:1000F000F3010008F3010008F3010008F301000810
:10010000F3010008F3010008F3010008F3010008FF
:10011000A54B00083D4C00083D4B0008A14B0008D2
:10012000F3010008F3010008F3010008F3010008DF
:10013000F30100080000000000000000F3010008C7
:10014000F3010008F3010008F3010008F3010008BF
:10015000F3010008F3010008F3010008F3010008AF
:10016000F3010008F3010008F3010008F30100089F
:10017000F3010008F3010008F3010008000000008B
:1001800000000000F3010008000000000000000073
:10019000F30100080000000000000000F301000867
:1001A000000000000000000000000000F301000853
:1001B000F3010008F3010008F3010008F30100084F
:1001C000F3010008DFF80CD000F02AFB00480047DC
:1001D00061570008704F00200648804706480047D6
:1001E000FEE7FEE7FEE7FEE7FEE7FEE7FEE7FEE7E7
:1001F000FEE7FEE7854A0008C50100082DE9F05F2B
:100200000546002092469B46884606468146402485
:100210001BE0284641464746224600F0ACF95346CB
:100220005A46C01A914110D311461846224600F092
:1002300093F92D1A67EB01084F4622460120002151
:1002400000F08AF917EB00094E41201EA4F10104C9
:10025000DFDC484631462A464346BDE8F09FD2B22D
:1002600001E000F8012B491EFBD270470022F6E79F
:1002700010B513460A4604461946FFF7F0FF20461C
:1002800010BD2DE9FE4F804681EA0300C00F0C46E9
:10029000009021F0004123F00045B8EB0200A94195
:1002A00005D24046214690461C460B46024623F0A6
:1002B0000040104347D0270DC7F30A00C3F30A518B
:1002C0000290401A019040286BDAC3F3130040F407
:1002D000801B0098924620B10023D2EB030A63EB07
:1002E0000B0B01985946C0F14002504600F034F91A
:1002F00006460D4650465946019A00F04CF910EB5F
:1003000008006141002487EA115284EAE7731A4326
:1003100040D0009A62B3019A012A4FEA075215DCD5
:10032000001B61EB02014FF0004202EA0752CDE9E7
:100330000042001C41F5801132462B4600F083F943
:1003400003B0BDE8F08F40462146F9E7001B61EBA2
:100350000201001C41F5801300185B412018A2F532
:10036000001747EB030140EAD570B6196D4111E063
:100370006D084FEA360645EAC0754FEA0752001B82
:1003800061EB0201001C41F5801149084FEA300081
:100390000019514132462B4603B0BDE8F04F00F042
:1003A00043B90098012240000023D0EB020263EB26
:1003B000E073009821464FEAE074B8EB000061EB6F
:1003C0000401E9E783F000435BE781F0004158E76F
:1003D0002DE9FE4F81EA030404F0004421F00041BE
:1003E00000944FF0000B23F0004350EA01045ED06C
:1003F00052EA03045BD0C3F30A54C1F30A552C44F8
:10040000A4F2F3340194A0FB0254C1F3130141F4AC
:100410008011C3F3130343F4801301FB024400FB78
:10042000034E840A970A44EA815447EA8357A4FB9F
:10043000076802958D0A05FB07854FEA932C04FB9C
:100440000C542705029D4FEA065847EA1637B5EBCC
:1004500008056EEB070C870E920E47EA811742EAF9
:100460008312A7FB0201B6EB0B0164EB00042B0D1A
:1004700043EA0C335E1844EB1C50DA465146E7FB66
:100480000201C5F313044FEA0B3343EA14534FEA56
:100490000432019C43EA0603A4F10C040294009C7C
:1004A000CDE900B400F0CFF803B0BDE8F08F002034
:1004B0000146F9E70EB540F2334102910021CDE942
:1004C00000110A460B4600F0BEF803B000BD00F074
:1004D000004230F000400AD0C10D01F56071C0F358
:1004E000160042EA0151C20840071143704700203C
:1004F0000146704701F0004330B421F0004150EA5A
:10050000010206D00A0DA2F56072C1F31301002AA0
:1005100002DC30BC00207047440F44EAC104C10033
:10052000E01830BC00EBC25000F047B830B50B46C5
:10053000014600202022012409E021FA02F59D4213
:1005400005D303FA02F5491B04FA02F52844151EE7
:10055000A2F10102F1DC30BD202A04DB203A00FACE
:1005600002F1002070479140C2F1200320FA03F30A
:10057000194390407047202A04DB203A21FA02F008
:100580000021704721FA02F3D040C2F120029140CD
:10059000084319467047202A06DBCB17203A41FA58
:1005A00002F043EAE07306E041FA02F3D040C2F100
:1005B000200291400843194670470029A8BF7047A0
:1005C000401C490008BF20F00100704710B4B0FA89
:1005D00080FC00FA0CF050EA010404BF10BC704724
:1005E00049B1CCF1200421FA04F411FA0CF118BF3E
:1005F000012121430843A3EB0C01CB1D4FEA00610D
:100600004FEA102042BF002010BC704700EBC350DF
:1006100010440029A4BF10BC7047401C490008BF0B
:1006200020F0010010BC704710B5141E73F10004D7
:1006300008DA401C41F1000192185B411A4301D1D4
:1006400020F0010010BD2DE9F04D92469B4611B1FE
:10065000B1FA81F202E0B0FA80F220329046FFF760
:100660007BFF04460F4640EA0A0041EA0B0153466D
:100670005A46084313D0114653EA010019D0C8F175
:1006800040025046FFF777FF05460E465046594652
:100690004246FFF761FF084305D0012004E02046F1
:1006A0003946BDE8F08D0020054346EAE0762C434C
:1006B00037430A986305E40AA0EB08000022FD0A0C
:1006C00044EA47540A3002D500200146E9E7010513
:1006D00010196941DDE9084500196941BDE8F04D8F
:1006E000A2E72DE9F04D81EA030404F0004B21F06C
:1006F000004514464FF0000A23F0004150EA05027D
:1007000020D054EA01021DD0C5F30A570246C5F3B2
:100710001303C1F31300C1F30A5640F4801543F4E8
:100720008013A7EB0608101BD64608F2FD3873EBC2
:10073000050002D308F1010801E092185B41B8F10D
:10074000000F03DA00200146BDE8F08D00204FF4D1
:100750008011064684460EE0171B73EB050705D390
:10076000121B63EB050306434CEA010C49084FEAF0
:10077000300092185B4150EA0107EDD152EA0300C4
:1007800012D082EA040083EA0501084305D0101B59
:10079000AB4106D20122002306E000224FF00043C5
:1007A00002E06FF0010253101AEB06004CEB085107
:1007B00010EB0A0041EB0B01BDE8F04DFFF734BF31
:1007C000C1F30A52C1F3130140F2FF3341F4801127
:1007D0009A4202DA00200146704740F233439A42BF
:1007E000A2F2334202DC5242FFF7C5BEFFF7B4BEAD
:1007F00030B5041E71F1000404DB4FF000444042A8
:1008000064EB0101141E73F1000405DB1C464FF07C
:100810000043524263EB0403994208BF904230BD4B
:10082000064C074D06E0E06840F0010394E807003D
:1008300098471034AC42F6D3FFF7C8FC10590008B3
:100840003059000870B58D1810F8014B14F00302F0
:1008500001D110F8012B231106D110F8013B03E060
:1008600010F8016B01F8016B521EF9D1ABB110F811
:10087000012B04F00C048A1A0C2C03D0A2EB841276
:100880009B1C08E010F8014BA2EB0422F8E712F8D9
:10089000014B01F8014B5B1EF9D5A942D4D30020CE
:1008A00070BD0000464910B54A6822F440324A60E3
:1008B0004A6843681A434A6001684A6822F48072B1
:1008C0004A6001684A68036942EA03224A60016893
:1008D0004A6822F040724A6001684A6883681A4395
:1008E0004A6001688A6822F400628A6001688A6846
:1008F000C3681A438A60816A6FF07062D1420168EE
:100900008A6822F070628A6001688A680CD0836A03
:100910001A438A6001688A6822F040528A6001683E
:100920008A68C36A1A4301E022F040528A60016873
:100930008A6822F002028A6001688A68037E42EABD
:1009400043028A6090F82010002901684A680FD09D
:1009500042F400624A6001684A6822F460424A60D8
:1009600001684A68174C436A04EB43331A4301E0B9
:1009700022F400624A600168CA6A22F47002CA6204
:100980000168CA6A838B104C04EB03531A43CA6292
:1009900001688A6822F400728A6001688A6890F8A7
:1009A000303042EA43228A6001688A6822F4806219
:1009B0008A6001688A68406942EA8020886010BDC8
:1009C0000023014000E0FFFF0000F0FF2DE9F04FA1
:1009D00020212DED088BA1B06846FFF747FC0024CD
:1009E000202108A8FFF742FC202110A8FFF73EFCB9
:1009F000202118A8FFF73AFC4FF6FF766D4677489E
:100A000000F0B6FB3146754800F060FB734800F01B
:100A1000EFFA45F82400641CE4B2082CEFD36F48C9
:100A200000F01CFC6E4800689FED6E9B9FED6FAB65
:100A30009FED708A704EDFED718A714FDFF8C4B19F
:100A40004FF0020A012833D0022875D003286DD157
:100A50000024B1460DF1600835F82400C0F30B0006
:100A6000FFF728FD53EC192BFFF7B2FC53EC1A2BC0
:100A7000FFF7AEFC08EB840641EC1B0B3068FFF778
:100A800026FD53EC1B2BFFF7FCFBFFF733FD00EEBD
:100A9000100A86ED000A20EE080A10EE100A86ED14
:100AA000000A484501DAC6ED008AE0077DD08FE0F4
:100AB00000240DF12008A94639F82400C0F30B00EA
:100AC000FFF7F8FC53EC192BFFF782FC53EC1A2BC1
:100AD000FFF77EFC08EB840541EC1B0B2868FFF751
:100AE000F6FC53EC1B2BFFF7CCFBFFF703FD00EEEE
:100AF000100A85ED000A20EE080A10EE100A85EDB6
:100B0000000AB04201DAC5ED008AE0070AD1286880
:100B1000B84207DD0BEB5401012081F800A03A49EF
:100B2000C1F8A402641CE4B2082CC5D321B0BDEC0A
:100B3000088BBDE8F08FFFE700240DF14008A946BF
:100B400039F82400C0F30B00FFF7B4FC53EC192B69
:100B5000FFF73EFC53EC1A2BFFF73AFC08EB840539
:100B600041EC1B0B2868FFF7B2FC53EC1B2BFFF783
:100B700088FBFFF7BFFC00EE100A85ED000A20EEAF
:100B8000080A10EE100A85ED000AB04201DAC5ED40
:100B9000008AE0070CD12868B84209DD0BEB54004D
:100BA000194980F804A0012000E006E0C1F8A40281
:100BB000641CE4B2082CC3D3B8E73068B84207DD40
:100BC0000BEB5400104980F808A00120C1F8A402E2
:100BD000641CE4B2082CFFF43FAFA7E7D41F002049
:100BE000240000206666666666660A400000000013
:100BF0000000303F0000C8420000C8410000000073
:100C000000001643C81F0020000041422DE9F05F9C
:100C1000002001F065FE8046102001F061FE814653
:100C2000142001F05DFE0746062001F07DFE064619
:100C3000032001F079FE05462E2001F051FE044606
:100C40000F2001F04DFE282004F058FD4FF4A57A46
:100C50004FF4FA7B07E02621002001F051FF00202D
:100C600001F03EFE8046B8F1260FF4D107E0902156
:100C7000102001F045FF102001F032FE8146B9F14D
:100C8000900FF4D107E0B0212E2001F039FF2E2083
:100C900001F026FE0446B02CF5D107E014210846E9
:100CA00001F02EFF142001F01BFE0746142FF5D192
:100CB000544621468E420FD0062001F040FF062008
:100CC00001F032FE0646F4E7032001F038FF03206E
:100CD00001F02AFE054600E05C4621468D42F3D134
:100CE000042004F00BFDBDE8F05F042004F006BD15
:100CF000FEE770472DE9F0410A2002F0ABFADFF879
:100D000060804FF480552946404602F06EF8012677
:100D1000144CAF10012806D03946404602F065F861
:100D200001280CD00CE020684FF00001401E20602C
:100D300000D521600C4801600C48066000E0266088
:100D40003C46384601F0ACFF094E00B134602C46F9
:100D5000284601F0A5FF002800D03460BDE8F081EE
:100D600000040240EC04002054070020F00400209E
:100D7000143C01407047000070B5B3F5804F05D0BA
:100D80006FF0704140F82210002070BD50F82240F2
:100D9000084B8E891C40D1E9003543EA05138D6864
:100DA00089692D0245EA06452B430B43234340F84E
:100DB0002230E9E70000F0CFF0B50C6850F824309D
:100DC0001A4A1340D1E90125D1E903672A433E437A
:100DD00032434E693243CE6932430E6A32434E6A21
:100DE00032438E6A3243CE6A32430E6B32434E6BCD
:100DF0003243CE6B32438E6B32431A43082D01D1FE
:100E000042F0400240F824204A6BB2F5801F05D121
:100E10000A684AB1026842F4801202600A681AB194
:100E20000268896B0A4302600020F0BD8004C0FFA5
:100E3000F0B500EB8204626802F04045D1E900237E
:100E400042EA03128B688E891B0243EA06431A4367
:100E50000E8A0D4B03EB065632430E7D5F0107EB06
:100E6000066632438E6932432A4362600268D202C8
:100E700007D54268098A22F4700203EB015111433D
:100E800041600020F0BD00000000F0FF78B50024B4
:100E9000009490F83C20012A19D0012280F83C20CF
:100EA0000A6807230568092A13D9EE680A3A02EB93
:100EB000420293409E43EE600B788A680A3B03EB44
:100EC00043039A400368DD682A43DA6010E0022099
:100ED00078BD2E6902EB420293409E432E610B784F
:100EE0008A6803EB43039A4003681D692A431A6129
:100EF0004A681F23072A13D205686E6B521E02EB45
:100F0000820293409E436E630A8893B20A79521E0E
:100F100002EB820293400268556B2B43536327E038
:100F200005680D2A12D22E6BD21F02EB820293406B
:100F30009E432E630B790A88DB1F92B203EB830377
:100F40009A4003681D6B2A431A6311E0EE6A0D3A5A
:100F500002EB820293409E43EE620B790A880D3BBE
:100F600092B203EB83039A400368DD6A2A43DA6294
:100F70001B4B0568194A9D420AD10D68122D07D1F5
:100F8000556825F400055560556845F480055560A1
:100F900005689D421DD1134D0B68AB4201D0112B4A
:100FA00017D1536823F480035360536843F400035C
:100FB00053600968A9420CD10B490C4A0968B1FB7E
:100FC000F2F101EB8101490000E0491E0091002986
:100FD000FBD180F83C40002078BD00000023014098
:100FE00000200140120000107807002040420F004E
:100FF0000068C06C704770B504004FF0000503D066
:10100000206C002610B107E0012070BD204600F0E2
:101010001DF8666484F83C60206CC00610D4206C17
:1010200020F4885040F0020020642046FFF73AFC8C
:101030006664206C20F0020040F00100206400E0B3
:10104000012584F83C60284670BD000030B587B0AB
:10105000044614216846FFF709F9184920688842B8
:101060002AD117480025016841F4807101600068A9
:1010700000F48070059012481438016841F00101B5
:101080000160016801F001010591016841F0020170
:1010900001600068032400F002000590FC208DE848
:1010A00031006946074800F017FA0094694606487F
:1010B000CDE9014500F010FA07B030BD0020014035
:1010C0004438024000000240000402402DE9F04193
:1010D000044600680D4681684FF0000749050BD5AE
:1010E0008068C00508D5206C40F02000206484F89A
:1010F0003C700120BDE8F08100F0C2FA06460FE026
:10110000681C0DD025B100F0BBFA801BA84207D99E
:10111000206C40F00400206484F83C700320E9E770
:10112000206800688007EBD521686FF01200086026
:10113000206C40F4007020642068816811F0405FEA
:1011400013D1217E89B9C16A11F4700F02D0806871
:1011500040050AD4206C20F480702064206CC00408
:1011600003D4206C40F0010020640020C2E700009E
:1011700018B50021009190F83C20012A07D00122E7
:1011800080F83C2002689368DB0702D011E002205F
:1011900018BD936843F0010393602A4A2A4B1268F2
:1011A000B2FBF3F202EB420200E0521E0092002A70
:1011B000FBD102689368DB0741D0036C40F2016405
:1011C000A34343F48073036453685B0505D5036C44
:1011D00023F4005343F480530364036CDB0404D50D
:1011E000436C23F00603436400E0416480F83C1044
:1011F00016496FF02203136049680068CA06144953
:1012000006D088421BD1816811F0405F13D016E0F0
:101210008842F8D00F4A904203D1D1F80423D20675
:10122000F1D00D4A90420AD1D1F8041301F01F0108
:101230001029E8D303E0816841F0804181600020FB
:1012400018BD00007807002040420F000023014035
:1012500000200140002101400022014090F83C1094
:1012600001290CD0012180F83C1001688A6822F025
:1012700001028A6001688968C90702D007E002207C
:101280007047016C21F4885141F001010164002193
:1012900080F83C100846704770B5040003D094F8FD
:1012A000200010B104E0012070BD204600F082F85B
:1012B0002068016821F00201016000F0E1F90546B3
:1012C000052604E000F0DCF9401B0A2811D820684C
:1012D00040688007F6D42068016841F00101016090
:1012E00000F0CEF905460BE000F0CAF9401B0A28D1
:1012F00006D9606A40F40030606284F82060D2E76A
:1013000020684068C007EFD0207E0128206801686F
:101310003DD021F080010160607E012820680168D5
:1013200038D021F040010160A07E012820680168CA
:1013300033D021F020010160E07E0128206801689F
:101340002ED041F010010160207F01282068016843
:1013500029D021F008010160607F01282068016820
:1013600024D021F004010160D4E902010843D4E94A
:101370000412114308436168491E08432168C8618B
:1013800000206062012084F82000002070BD41F040
:101390008001C0E741F04001C5E741F02001CAE704
:1013A00021F01001CFE741F00801D4E741F004013A
:1013B000D9E7000010B586B0044614216846FEF750
:1013C00055FF14492068884221D113480021026842
:1013D00042F000720260006800F0007005900E4854
:1013E0001038026842F001020260006800F001005B
:1013F00005904FF4C05000900220CDE90101032078
:101400000390092004906946044800F065F806B08E
:1014100010BD00000064004040380240000002405F
:1014200090F83510022903D08021416501207047D2
:10143000052180F835100068016821F00101016084
:101440000020704790F8350070470000F0B587B075
:1014500014216846FEF70AFF1A48016800292ED1B8
:101460000121016018480024016841F00101016078
:101470000068022500F0010005904FF68070CDE96C
:10148000000502AA03260C2782E8D00069460F480F
:1014900000F022F84CF2BB70CDE9000502AA6946C3
:1014A00082E8D0000A4800F017F88020CDE9000556
:1014B00002AA694682E8D000064800F00DF807B09D
:1014C000F0BD0000480700203838024000100240FC
:1014D000000C0240000402402DE9F84F00224FF0BA
:1014E000010803254FF00F0E0B6808FA02F42340A1
:1014F000A3426ED14E68012E05D0022E03D0112ECC
:1015000001D0122E12D186684FEA420C05FA0CF770
:10151000BE43CF6807FA0CF7374387604668A64397
:101520000C79C4F30014944034434460C6685700F7
:1015300005FA07FC8C6826EA0C06BC403443C460FC
:101540004C68022C01D0122C13D1D40800EB840477
:10155000A346D4F8209054074FEAD46A0EFA0AF64C
:1015600029EA06090E6906FA0AF646EA0906CBF8E0
:10157000206006680C7926EA0C0604F00304BC40DF
:10158000344304604C68E40060D5334C266846F46C
:1015900080462660246822F0030604F48044009408
:1015A0002E4C3444A446D4F808489607370F0EFA58
:1015B00007F6B4432A4EB04201D100261FE0294E5F
:1015C000B04201D101261AE0274EB04202D10226D4
:1015D00015E03BE0254EB04201D103260FE0244E3A
:1015E000B04201D104260AE0224EB04201D10526C4
:1015F00005E0214EB04201D1062600E00726BE409C
:101600002643CCF808681D4E34684F689C43FF039E
:1016100000D51C433460194E361D34684F689C4316
:10162000BF0300D51C433460144E083634684F683D
:101630009C43FF0200D51C433460104E0C363468C6
:101640004F689C43BF0200D51C433460521C102AD3
:10165000FFF44AAFBDE8F88F443802400030014043
:10166000000002400004024000080240000C02405A
:10167000001002400014024000180240003C0140EB
:1016800001488068704700006C0700207047704771
:101690002DE9F041016804464A694E6890F83E0021
:1016A0000025D743FA0506D4F243D20503D46FF4DC
:1016B000807201254A61B90508D4F143C90505D4F2
:1016C00022686FF4007145F002055161790525D457
:1016D000F143C90522D4638D94F83D10226B202874
:1016E00008D13BB9212910D029290ED0282901D1B0
:1016F000212A0AD022686FF48061516145F0040507
:10170000102806D0402804D008E0204600F0B8FF9A
:1017100004E02068016841F400710160380508D4D4
:10172000F043C00505D421686FF4006045F008055A
:101730004861002D07D0206C284320642046BDE876
:10174000F04100F05BBCBDE8F0812DE9F04102689A
:1017500000245168C76A90F83E5090F83D60102D03
:101760001CD0402D1AD0036C002B7ED053694FF053
:101770002805DB439F0779D4CF43BF0576D4016C9E
:1017800001B1946990F83D3000219D430B466ED025
:10179000C91E516180F83C30BDE8F08194695369FD
:1017A0004FF42A0CDB435FEAC37E4FF02A4604D095
:1017B0006745F1D0B742EFD010E0CF43BF050DD45D
:1017C000C16A614501D1012103E0C16AB14201D181
:1017D0000821C162BDE8F04100F0BCBE1E0716D46E
:1017E000CE43B60513D4416CC9B21161416B11B936
:1017F000826B002AD0D0C96B19B9816BC96B0029E3
:10180000CAD00068416841F400614160C4E79E07A6
:1018100006D4CE43B60503D4BDE8F04100F00EBEB9
:10182000E443526864074FEA02521BD4002AB3DB38
:101830001A0608D4CA43520505D45A0705D5BDE88F
:10184000F04100F09FBD5A07A6D4C9438905A3D42F
:10185000102D03D0BDE8F04100F0C2BEBDE8F0415C
:1018600000F056BD002A97DB02E015E029E015E004
:101870005A0608D4CA43520505D45A0705D5BDE80F
:10188000F04100F0D1BC5A0786D4C943890583D4FE
:10189000BDE8F04100F05EBC946967E7556825F447
:1018A00080655560E243540700D50121120601D539
:1018B000828900E0028B80F83C3092B2FFF7E7FEAD
:1018C0006AE7DC0606D4CC43A40503D4BDE8F041A6
:1018D00000F018BF212E27D0292E25D05C0655D424
:1018E000CC43640552D45B0752D590F83D10438D2C
:1018F000002B8BD01269436A1A70426A521C4262F2
:10190000428D521E4285428D002AD9D12A29D7D133
:1019100001684A6822F480624A602221016380F8EB
:101920003D5000F057F937E71C0623D4CC4364053B
:1019300020D45B0720D590F83D10438D002BBFD0FD
:10194000436A1B781361426A521C4262428D521EE6
:101950004285428D002AB3D12929B1D101684A6854
:1019600022F480624A602121016380F83D5000F03A
:1019700032F911E75B07A3D4C9438905A0D4418D8F
:1019800000299DD0416A097811610AE05B0797D46C
:10199000C943890594D4418D002991D01169426AC7
:1019A0001170416A491C4162418D491E4185F3E62F
:1019B0007047000070B5040025D094F83D00002564
:1019C00020B984F83C50204600F0BEF8242084F86A
:1019D0003D002068016821F0010101602068016874
:1019E00041F4004101602068016821F40041016078
:1019F00000F08CF94D4A6168914201D84C4900E0F1
:101A00004C49884201D2012070BD4B492368B0FB8C
:101A1000F1F15E6826F03F060E435E606368934214
:101A200006D94FF4967359434FF47A73B1FBF3F12F
:101A30002368491C1E6A26F03F063143196261681B
:101A4000914210D84900401EB0FBF1F2521CC2F383
:101A50000B02042A01D2042022E0B0FBF1F0401C6A
:101A6000C0F30B001CE0A268F2B301EBC10303EB6F
:101A70000116431EB3FBF6F35B1C43F480431B05C6
:101A800049D092B301EBC10202EB0111401EB0FB41
:101A9000F1F0401CC0F30B0040F4804040F40040E3
:101AA0002168CA694CF6FF739A431043C861D4E9B0
:101AB000071001432068026822F0C0021143016050
:101AC000D4E9030101432068826848F2FF339A4356
:101AD00011438160D4E9050108432168CA6822F0F6
:101AE000FF021043C86001E00EE016E020680168C4
:101AF00041F0010101602564202084F83D00256348
:101B000084F83E50002070BD01EB4106431EB3FB3C
:101B1000F6F35B1CB3E70120C2E701EB4101401E75
:101B2000B0FBF1F0401CC0F30B00B7E7A08601004A
:101B300080841E0000093D0040420F00704770473E
:101B4000704770477047000010B586B004461421F6
:101B50006846FEF78BFB1C492068884231D11B4840
:101B6000016841F0020101600068694600F002006E
:101B700005904FF410700090122001900120029007
:101B800003200390042004901148FFF7A5FC0F48A0
:101B90001030016841F4001101600068002200F477
:101BA0000010059011461F2000F07EF81F2000F065
:101BB0006DF800221146202000F076F8202000F079
:101BC00065F806B010BD00000054004030380240F7
:101BD000000402407047704702488168027811444F
:101BE000816070476C0700200B4810B5016841F414
:101BF00000710160016841F480610160016841F495
:101C000080710160032000F06FF8002000F006F8FA
:101C100000F024F8002010BD003C024070B50D4DCE
:101C200004464FF47A712878B1FBF0F00A4909684C
:101C3000B1FBF0F000F063F948B9102C07D2002294
:101C40002146501E00F030F800206C6070BD01206D
:101C500070BD00006C070020780700200A4808B516
:101C6000016841F480410160006800F48040009008
:101C70000548001F016841F080510160006800F0D4
:101C80008050009008BD000044380240002809DB65
:101C900000F01F02012191404009800000F1E02086
:101CA000C0F8001170470000F0B40E4B1B680C46E2
:101CB000C3F30223C3F10705042D00D90425191D20
:101CC000072901D2002300E0DB1E012606FA05F1F8
:101CD000491E214099409E40761E16403143F0BC7B
:101CE00003F098B80CED00E0064900F00702086820
:101CF0004FF6FF03184040EA0220034A10430860F1
:101D0000704700000CED00E00000FA0504480549AA
:101D100000680968044AC1F38221515CC8407047D9
:101D200078070020083802400559000870B5040003
:101D300005D00025A56294F8510010B106E00120FD
:101D400070BD84F85050204600F030F8022084F82E
:101D500051002068016821F040010160D4E90101CF
:101D60000843D4E903121143084361690843218BF6
:101D700001F400710843E1690843216A0843A16A3C
:101D8000084321680860A069042101EA1040616AE3
:101D90000843216848602068C16921F40061C1617D
:101DA0006565012084F85100002070BD10B586B033
:101DB000044614216846FEF759FA13492068884200
:101DC00020D112480021026842F48052026000686B
:101DD00000F4805005900D481438026842F0020269
:101DE0000260006800F00200059038200090022098
:101DF000CDE90101032003900520049069460448C1
:101E0000FFF76AFB06B010BD0030014044380240C5
:101E10000004024070B515460E46040003D094F845
:101E2000490010B107E0012070BD002084F848008F
:101E3000204600F01AF804F108012068FEF7BCFF04
:101E40003146A2682068FEF7F3FFD4E90102294673
:101E5000236BFEF791FFA168206850F8212042F023
:101E6000010240F82120002070BDFFF7EFBA30B525
:101E700090F84840012C13D0012480F848400225F6
:101E800080F849502BB131F8025B22F8025B5B1EEF
:101E9000F9D180F84940002180F84810084630BD4B
:101EA000022030BD30B590F84940042C17D090F88E
:101EB0004840012C15D0012480F84840022580F8C4
:101EC00049502BB132F8025B21F8025B5B1EF9D15D
:101ED00080F84940002180F84810084630BD0120B4
:101EE00030BD022030BD4FF0E0210428086903D046
:101EF00020F004000861704740F00400FAE710B5D4
:101F0000401EB0F1807F01D3012010BD4FF0E024CE
:101F100060610F21601702F07DFF0020A0610720A3
:101F20002061002010BDFEE70148FFF7B1BB0000B3
:101F3000942000200148FFF708BC000094200020F6
:101F400038B5806B002190F83D202B4B46F2A81449
:101F50001B68B3FBF4F3C3EBC30303EB83030093EE
:101F60003BB15B1E009303681B689B0505D5009B76
:101F7000F6E7036C43F020030364436B03B1D963BA
:101F8000836B03B1D96303681C6824F480641C600C
:101F90004185436B03B11965836B03B11965036810
:101FA0001C6824F001041C6090F83D402023602C44
:101FB0000BD0282434EA02020FD080F83D3080F89C
:101FC0003E1000BFFFF7F4FC38BD80F83D3080F8CC
:101FD0003E100164FFF75AFB38BD0268136843F0F6
:101FE000010313600268136843F4806313600163A4
:101FF00080F83D40E6E700007807002070B5044611
:1020000090F83D0094F83E10102901D0402906D1E7
:10201000222804D121680A6822F400620A6028217B
:1020200031EA00024FF000054FF0200626D021686B
:102030004968090505D4602803D084F83D6084F818
:102040003E50256320684168090537D5416821F471
:1020500000614160606B90F835203C49012A11D045
:102060000165606BFFF7DCF938B32068016821F087
:102070000101016084F83D60606B1CE0256384F819
:102080003D10DFE7A06B0165A06BFFF7C9F9A0B1B8
:1020900020684169C943490605D40069616A08702E
:1020A000606A401C60622068016821F001010160E3
:1020B00084F83D60A06B016D884710E094F83D10F6
:1020C000602910D04169C943490605D40069616A95
:1020D0000870606A401C60622046FFF769FC206C53
:1020E000C1071CD115E084F83D6025644169C943EE
:1020F000490605D40069616A0870606A401C606224
:102100002068016821F0010101602046FFF7BEFA56
:10211000E5E7810703D4410701D4000704D520680F
:10212000416821F4E061416094F83D00216C490769
:102130000BD5282809D10648E062256384F83D6064
:1021400084F83E502046FFF7F9FC70BD411F00089F
:102150000000FFFF10B5C26A438D0168042B06D052
:10216000438D032B08D0438D022B1DD012E04A680B
:1021700022F480624A600CE04B6823F480634B6079
:10218000042A06D0022A04D001680A6822F4806278
:102190000A6001680969426A1170416A491C41621A
:1021A000418D491E418510BD012A30D0102A2ED004
:1021B000042A30D0022A2ED00A6842F400720A6043
:1021C00001680969426A1170416A491C4162428D85
:1021D000521E4285026812690A70416A491C4162B6
:1021E000418D491E418501684A6822F440724A6067
:1021F000202180F83D1090F83E200021402A80F8F0
:102200003E100CD012210163FFF799FC10BD0A6843
:1022100022F48062D3E70A6842F48062CFE7016368
:10222000FFF78FFC10BD000038B590F83D10222953
:1022300014D1418D032912D901680969426A1170CC
:10224000416A491C4162418D491E4185418D0329E6
:1022500004D10068416821F48061416038BDC26AE0
:10226000022AFBD0012901D00029F7D1274946F2E3
:10227000A81300220968B1FBF3F101EB8101009181
:1022800001682023009C641E009422D00C68A405E1
:10229000F8D40C6824F480640C6001684C6824F461
:1022A000E0644C6001680969446A2170416A491C14
:1022B0004162418D491E418580F83D3090F83E10C5
:1022C00080F83E2040291DD012210163FFF737FC22
:1022D00038BD046C44F0200404644C6824F4E064C9
:1022E0004C6001680969446A2170416A491C416275
:1022F000418D491E418580F83D3080F83E20FFF732
:1023000057FB38BD0263FFF71CFC38BD780700207F
:1023100010B5C16A90F83D20212A0BD1428D52B1EF
:10232000416A026809781161416A491C4162418D24
:10233000491E418510BD00222023082910D02029E4
:102340000ED011F5803F0BD001684C6824F4E06496
:102350004C601121016380F83E2080F83D300EE092
:1023600001684C6824F4E0644C6001680C6844F433
:1023700000740C60026380F83D3080F83E20FFF767
:10238000DFFB10BD10B590F83D1090F83E30C26AEA
:10239000048DB4B1212903D0402B11D122290FD1B2
:1023A000418DE1B390F83E10402942D0416A026865
:1023B00009781161416A491C4162418D491E41857C
:1023C00010BD2129E8D120230021082A13D0202A7A
:1023D00011D012F5803F0ED00268546824F4E064F6
:1023E00054601122026380F83E1080F83D3000BF37
:1023F000FFF7A6FB10BD0268546824F4E064546043
:102400000268146844F400741460016380F83D307D
:1024100090F83E2080F83E10402AE9D100E002E02A
:10242000FFF790FB10BD0068416821F480614160B6
:1024300010BDBDE8104000F0D3B8000078B590F8AA
:102440003E50C26A036B90F83D6000240168222E62
:102450007AD1066D0EB9402D76D0056D1DB905698E
:10246000B5F5404F09D0458D05B3468D384D012E49
:102470000ED0438D022B3AD05DE04A698A69009202
:102480000A6842F480720A60016D491C016578BDDA
:10249000AA4213D10A6822F480620A6001684A687D
:1024A000120503D50A6822F4806216E04A698A6937
:1024B00000920A6842F400720A6039E0082A10D0DB
:1024C000202A0ED0122B0AD0042A03D0022A01D0CF
:1024D000102AE7D10A6842F480620A6024E0012AE7
:1024E000E0D00A6822F480620A600168DEE7042A0C
:1024F00021D0022A1FD0102A1DD00B6823F480633C
:102500000B6001680B6843F400630B6001684B6863
:102510001B0509D5AA4212D0012A10D0082A0ED0D4
:10252000102A0CD0202A0AD001684A6989690091D2
:10253000046578BD08E00B6843F48063E5E74A680A
:1025400042F480524A60EFE7486988690090F0E7FA
:102550000000FFFF90F83E10402910D00169B1F54E
:10256000804F19D0016DA9B3016D012910D1416CC3
:102570005FF0F10201F4407142EAD11106E0016D11
:102580000029416C05D0C9B241F001010068016128
:10259000704701F0FE01F9E790F83D102129416CE8
:1025A00009D0C9B241F0010102681161416B29B142
:1025B000C96B49B902E001F0FE01F5E7816B002922
:1025C000E6D0C96B0029E3D00068416841F400619E
:1025D00041607047FFE7416CF02201F44071CBE7A6
:1025E00010B590F83D10026D22B3026D012A2FD074
:1025F000026D022A1DD1222931D0428D0AB1212932
:1026000033D0428D002A14D1212912D101684A68A1
:1026100022F4E0624A6001680A6842F400720A60CB
:1026200000210163202280F83D2080F83E10FFF752
:1026300089FA10BDC16C0129816C02D0C1F3072158
:1026400008E00268C9B21161016D891C016510BD05
:10265000816CC9B202681161016D491CF6E700681E
:10266000016841F48071016010BD416A0268097817
:102670001161416A491C4162418D491E418510BD6D
:102680002DE9F04190F83D40C26A002320261C4FFE
:1026900001686FF48065082A01D0202A01D1282C16
:1026A00004D0212C16D04D61BDE8F081C7624A6884
:1026B00022F4E0624A6001684D6101680A6822F410
:1026C00080620A60036380F83D6080F83E30FFF767
:1026D00035FAE9E7C7622122026380F83D6080F89D
:1026E0003E304A6822F4E0624A6001684D61016848
:1026F0000A6822F480620A60FFF76DFAD4E70000EE
:102700000000FFFFF8B590F83D600446006841689E
:1027100021F4E06141602068002541690091016871
:1027200041F0010101602068016821F480610160CD
:1027300020684168090520D5474F222E48D02A2E0F
:1027400046D0616B096849686185618D19B1216C5A
:1027500041F004012164416821F400614160606B33
:10276000FEF770FE012808D0606B0765606BFEF70E
:1027700057FE10B1606B016D8847608D08B320680B
:102780004169C943490708D40069616A0870606AF1
:10279000401C6062608D401E608520684169C943AD
:1027A000490608D40069616A0870606A401C60626A
:1027B000608D401E6085608D18B1206C40F0040073
:1027C0002064206C00B32046BDE8F840FFF716BC3B
:1027D000A16B096849686185618D19B1216C41F06F
:1027E00004012164416821F400614160A06BFEF79F
:1027F00029FE0128C1D0A06B0765A06BFEF710FE73
:102800000028BAD0A06BB6E72A2E06D1256328206F
:1028100084F83D002046FFF7DDF994F83D102020B4
:1028200028290DD0216B222901D0222E07D1256322
:1028300084F83D0084F83E502046FFF7CBF9F8BD00
:102840000649E162256384F83D0084F83E50204645
:10285000FFF774F9F8BD0000411F00080000FFFFFA
:1028600070B50E4C4FF48005A561206820F440201F
:102870002060206840F480202060E003A0610420F4
:1028800002F04AFF4020A061042002F045FFA5614C
:10289000BDE87040012002F03FBF0000000402408C
:1028A00070B50E4C4FF48005A561206820F44020DF
:1028B0002060206840F4802020606015A061042022
:1028C00002F02AFF4020A061042002F025FFA5614C
:1028D000BDE87040012002F01FBF0000000402406C
:1028E00010B5044600F0A8F8200AD62101EB4000FC
:1028F000C0B200F077F800F0D9F8E0B200F072F85A
:1029000000F0D4F8022002F007FF00F095F8D7207D
:1029100000F068F800F0CAF8002000F02FF8044634
:1029200000F0A6F8204610BD70B5044600F084F80B
:10293000200AD62101EB4000C0B200F053F800F0AD
:10294000B5F8E0B200F04EF800F0B0F8022002F066
:10295000E3FE00F071F8D72000F044F800F0A6F88C
:10296000012000F00BF80446002000F007F80546AF
:1029700000F07EF845EA042070BD00002DE9F04724
:10298000164C81460025206820F4402020602068F5
:102990002060DFF84C802E464FF48007A7610420AA
:1029A00002F0BAFE4020A0616806050ED8F82402A5
:1029B00008B16D1CEDB2042002F0AEFE761CF6B23A
:1029C000082EEBD3B9F1000F04D0FFF749FF2846DA
:1029D000BDE8F087FFF764FFF9E70000000402405C
:1029E000008040422DE9F041114C0646206820F459
:1029F00040202060206840F4802020604FF4800751
:102A0000A761DFF830800025F109C8F8A41270062C
:102A1000060E042002F080FE4020A061042002F097
:102A20007BFEA7616D1CEDB2082DEDD3BDE8F081F2
:102A3000000402400080404210B50C4C206820F495
:102A400040202060206840F4802020604020A06169
:102A5000C000A061042002F05FFEE003A06104203A
:102A600002F05AFE4FF48000A06110BD0004024045
:102A700070B50D4C206820F440202060206840F4A0
:102A8000802020604FF48000A0614513C000A06149
:102A9000042002F041FE4020A061A561BDE8704025
:102AA000042002F039BE00000004024070B5124C50
:102AB0000025206820F440202060206820606015F8
:102AC000A061042002F028FE4020A061042002F052
:102AD00023FE0A4807E06D1CEDB2FA2D03D9FFF77B
:102AE000C7FF012070BDD0F824120029F3D14FF4A4
:102AF0008000A061002070BD0004024000804042C0
:102B000070B50D460446FFF797FF200AD62101EB6A
:102B10004000C0B2FFF766FFFFF7C8FFE0B2FFF763
:102B200061FFFFF7C3FF2846FFF75CFFFFF7BEFF1B
:102B3000FFF79EFFBDE87040022002F0DFBD70B5D8
:102B40000C460546FFF778FF280AD62101EB400026
:102B5000C0B2FFF747FFFFF7A9FFE8B2FFF742FF58
:102B6000FFF7A4FF200AFFF73DFFFFF79FFFE0B24A
:102B7000FFF738FFFFF79AFFFFF77AFFBDE87040D5
:102B8000022002F0BBBD0000044908B50A680243F8
:102B90000A6009680140009108BD00003038024019
:102BA000044908B50A6802430A60096801400091B7
:102BB00008BD000030380240044908B50A680243E5
:102BC0000A6009680140009108BD000030380240E9
:102BD000044908B50A6802430A6009680140009187
:102BE00008BD000040380240044908B50A680243A5
:102BF0000A6009680140009108BD000040380240A9
:102C000030B5264A002405790168131F85B371B3D6
:102C100045798DB1012D17D0022D18D0012483796B
:102C20002BB31E4908310A1F012B18D0022B20D0CC
:102C3000032B22D0012428E015688D43156001681C
:102C40001A680A431A60EAE71D688D4301E01D68AF
:102C50000D431D60016813680B431360DFE70368D1
:102C60000D689D430D6000681168014311600CE020
:102C70000DE0036815689D4302E0036815681D4375
:102C8000156000680A6802430A60204630BD1D686E
:102C90008D431D60006811688143E7E7043C0140F3
:102CA00003490968884301D000207047012070471C
:102CB000143C0140F0B50A680F2692FAA2F2B2FA6B
:102CC00082F303248AE001279F4015EA07027DD0A2
:102CD0004D68012D01D0022D1BD18D68876892FAB5
:102CE000A2FCBCFA8CFC4FEA4C0C04FA0CFC27EA60
:102CF0000C0792FAA2FCBCFA8CFC4FEA4C0C05FAC9
:102D00000CF52F438760CD684768554397432F43A1
:102D100047600F69D0F80CC092FAA2F5B5FA85F5B4
:102D20004FEA450E04FA0EF52CEA050C92FAA2F5CC
:102D3000B5FA85F56D00AF404CEA070CC0F80CC041
:102D40004D68022D33D192FAA2F5B5FA85F5082D1A
:102D500015D2D1F814C0056A92FAA2F7B7FA87F72C
:102D6000BF0006FA07F7BD4392FAA2F7B7FA87F752
:102D7000BF000CFA07FC45EA0C05056217E0D1F824
:102D800014E0476A150A95FAA5FCBCFA8CFC4FEAD8
:102D90008C0C06FA0CFC95FAA5F5B5FA85F5AD0094
:102DA00027EA0C070EFA05FE47EA0E0747624D6850
:102DB000076892FAA2FCBCFA8CFC4FEA4C0C04FAAD
:102DC0000CFE27EA0E0792FAA2F200E005E0B2FA42
:102DD00082F2520095402F4307605B1C0A6815463B
:102DE000DA407FF470AF0020F0BD0069814301D06C
:102DF000002070470120704730B5036891FAA1F4B4
:102E0000B4FA84F465000324AC4091FAA1F1B1FA5C
:102E100081F14900A3438A401343036030BD30B5BC
:102E2000C36891FAA1F4B4FA84F465000324AC40B9
:102E300091FAA1F1B1FA81F14900A3438A40134309
:102E4000C36030BD10B5044600F058FF206000F0AC
:102E50002BFF606000F036FFA060606800F040FF6C
:102E6000E06010BD0248006800F03F0070470000BD
:102E7000043802400248006800F4800070470000F7
:102E80000438024002480068C0F388107047000010
:102E9000043802400248006800F0E040704700003B
:102EA000043802400A06930D074A1A44D2F808383B
:102EB00023EA1143090C91FAA1F1B1FA81F188409A
:102EC0000343C2F8083870470030014001490860E8
:102ED000704700007807002010B501291CD0042994
:102EE0001CD010291CD040291CD0B1F5807F1BD0EC
:102EF000B1F5806F1AD006210D4B18305B5C184479
:102F000003680B4CE41D615C03248C40120CA3434A
:102F10008A401343036010BD0021EDE70121EBE778
:102F20000221E9E70321E7E70421E5E70521E3E7DB
:102F3000E058000810B501291CD004291CD0102924
:102F40001CD040291CD0B1F5807F1BD0B1F5806F1B
:102F50001AD006210D4B18305B5C184403680B4CEB
:102F6000E41D615CF0248C40120CA3438A4013439F
:102F7000036010BD0021EDE70121EBE70221E9E745
:102F80000321E7E70421E5E70521E3E7E05800082E
:102F900010B5012916D0042916D0102916D04029C1
:102FA00016D0B1F5807F15D0B1F5806F14D006230F
:102FB000016A0A4CE35C0A249C40A1439A401143F5
:102FC000016210BD0023F3E70123F1E70223EFE7DD
:102FD0000323EDE70423EBE70523E9E7EE580008B8
:102FE00010B501291CD004291CD010291CD040295F
:102FF0001CD0B1F5807F1BD0B1F5806F1AD00621AF
:103000000D4B18305B5C184403680B4CE41D615C8D
:103010000C248C40120CA3438A401343036010BD60
:103020000021EDE70121EBE70221E9E70321E7E7D2
:103030000421E5E70521E3E7E0580008F0B5026860
:10304000254B264D264E274F274C4FF0804C98425B
:1030500009D0604507D0A84205D0B04203D0B8429D
:1030600001D0A04205D1D1F804E022F0700242EA7A
:103070000E0298421BD0604519D0A84217D0B0422A
:1030800015D0B84213D0A04211D0184DA8420ED08E
:10309000174DA8420BD0174DA84208D0164DA84294
:1030A00005D0164DA84202D0154DA84203D1CD68D7
:1030B00022F440722A4302608A68C2620A888262ED
:1030C000984201D0A04201D1097C0163416941F0DD
:1030D000010141610020F0BD0000014000040040FA
:1030E00000080040000C0040000401400040014086
:1030F000004401400048014000180040001C00400E
:10310000002000407FB50446C0680D460126C0F38C
:103110004030C0BBE9686868AA690843296911435F
:103120000843E16849F20C6291430843E060A868F3
:10313000216921F44051014321616869616921F4E9
:103140004071014361616846FFF77CFE0F4884428D
:1031500008D00F4884420DD00E4884420AD00E4851
:10316000844201D1039906E00C48844202D00C4805
:10317000844208D1029931B12B6823B10026204640
:10318000AA6900F00FF804B0304670BD001001408D
:10319000004400400048004000140140004C004042
:1031A000005000402DE9F04106461920A1FB000126
:1031B0001F46002364243225B2F5004F27D0BB0FF1
:1031C000BA00FDF71BF80146B0FBF4F06FF01802EF
:1031D000504301EB800005EB0010B0FBF4F000F071
:1031E000F002B1FBF4F002EB0012B1FBF4F06FF06F
:1031F0001803584301EB800005EB0010B0FBF4F01E
:1032000000F00F00104480B2B060BDE8F081FA1900
:103210005B41FCF7F3FF0146B0FBF4F00201B1FBA8
:10322000F4F06FF01803584301EB800005EBC00089
:10323000B0FBF4F000F0F80002EB4002B1FBF4F058
:10324000584301EB800005EBC000B0FBF4F000F048
:103250000700D7E708B54FF0E0210A690092421C49
:1032600000D0401C0A69D20300D5401E0028F9D1C5
:1032700008BD00007FB500213848009101910291FE
:10328000354A0391C0E9002101240461816001767F
:1032900080F82040324A4462C0E90A210825C5610D
:1032A000C16080F830104461FDF7A5FE08B1FDF75C
:1032B00061FD0226CDE90064694628480294FDF7C5
:1032C000E5FD08B1FDF756FD0324CDE9004669464A
:1032D0002248FDF7DBFD08B1FDF74CFD0426CDE9E2
:1032E000006469461D48FDF7D1FD08B1FDF742FDB8
:1032F0000524CDE9004669461848FDF7C7FD08B129
:10330000FDF738FD0626CDE9006469461348FDF750
:10331000BDFD08B1FDF72EFD0724CDE90046694645
:103320000E48FDF7B3FD08B1FDF724FDCDE90054CB
:1033300069460A48FDF7AAFD08B1FDF71BFD092003
:10334000CDE9000569460548FDF7A0FD002801D03C
:10335000FDF710FD7FBD000000200140D41F0020BC
:103360000100000F0D4810B50B49016010214160AC
:1033700000218160C1600161416101764176817601
:10338000C17601774177FDF787FF002803D0BDE8BC
:103390001040FDF7EFBC10BD006400401C20002071
:1033A00018B53148016841F48001016000682F4977
:1033B00000F4800000902E4802788A58037822F0AA
:1033C0006062CA5002788A58037822F0C00242F044
:1033D0008002CA5002788A58037822F4403242F4BC
:1033E0000032CA5002788A58037822F49072CA5088
:1033F00002788A58037842F40072CA5002788A58D8
:10340000037842F48062CA5002788A58037822F422
:10341000C05242F40062CA5002788A58037822F4FB
:10342000C04242F40052CA50104A037814329B58EA
:10343000047843F00403A35003789B58047843F0C6
:103440000303A35002788A58037822F0C07242F036
:103450008072CA5002788A58007822F4C00242F47E
:1034600080020A5018BD000030380240006402405B
:10347000D858000810B588B01C216846FCF7F6FE45
:1034800017484FF0204100F1080C016015494160D8
:1034900000210222042310248CE81E00D401C0E97C
:1034A0000641D402C0E90914C16294040163C0E971
:1034B0000D14C163016441640F200090019002ACBF
:1034C000FF2084E80F000691002269460448FEF7B9
:1034D000A1FC002801D0FDF74DFC08B010BD000094
:1034E00044200020040100A02DE9F04F89B0002401
:1034F0000694182168460794FCF7B8FE1020FFF7E1
:1035000043FB0420FFF740FB8020FFF73DFB012039
:10351000FFF73AFB0220FFF737FB0820FFF734FBE9
:10352000684E4FF4F810B061684F6748B861DFF833
:10353000A0A14FF0C2414FF4C24BCAF81810DFF8F7
:1035400094914FF06151C9F81810DFF88C8189000F
:10355000C8F81810042000900125CDE901546946EF
:103560003046CDE90345FFF7A5FB1B200090CDE9D0
:1035700001540394694630460494FFF79BFB4FF4D3
:103580001C500090CDE901540394694638460494D8
:10359000FFF790FB40F60F00CDE90004694638467E
:1035A0000494FFF787FB3020CDE90005CDE9024503
:1035B000694638460494FFF77DFBCDF800B0CDE9AD
:1035C00001540394694650460494FFF773FBE803E3
:1035D000CDE90004694650460494FFF76BFB4FF4B5
:1035E00060500090CDE90154039469464846049424
:1035F000FFF760FB4FF461400090CDE90154039464
:10360000694640460494FFF755FB40200090CDE901
:10361000015469464846CDE90345FFF74BFB2F4966
:103620000120FFF73FFC2E490120FFF73BFC8DF8FE
:103630001C50AE028DF81D4006968DF81E5006A84F
:10364000FFF7DEFA8DF81C502F038DF81D4006970A
:103650008DF81E5006A8FFF7D3FA002231465046D7
:10366000FFF7DDFB002239465046FFF7D8FB00226A
:1036700031465046FFF7C0FB002239465046FFF75F
:10368000BBFB18480068C0F30220C0F10701042901
:1036900000D90421021D072A01D2002000E0C01E2B
:1036A0008D406D1E05F00101814008010E4981F831
:1036B00000040D494FF480702439C1F8000109B0AD
:1036C000BDE8F08F001002400000302700080240E3
:1036D00000040240000C0240000002400200000F03
:1036E00003000F000CED00E028E000E00D4810B5ED
:1036F0000B4901600C49416000214FF48042816018
:10370000C0E9031241618161C1610162FEF752F9B2
:10371000002803D0BDE81040FDF72CBB10BD000011
:103720000054004094200020A08601000F4810B5EE
:103730000D4901604FF48271416000218160C160D8
:103740004FF400720161C0E90512C161016241627A
:1037500081620A21C162FEF7E9FA002803D0BDE8C0
:103760001040FDF707BB10BD00300140E8200020ED
:1037700030B58BB0142106A8FCF778FD18216846F7
:10378000FCF774FD0220FFF723FA0420FFF708FA84
:10379000C020009002200024CDE90104CDE90440BE
:1037A000694603942A48FFF785FA01F00BFB0022D3
:1037B000022100F045FA01461D2001F00BFB1D20FF
:1037C00001F0E6FA4FF43470ADF818004FF47A7057
:1037D000CDE9074009941F4C06A92046FFF72EFCAF
:1037E000206820F080002060606820F07000606039
:1037F000A06820F08000A060A5132A460121204681
:10380000FFF76AFB002201212046FFF7E9FB0022B7
:1038100001212046FFF78EFB002201212046FFF701
:10382000B7FB2A4610212046FFF756FB0022102145
:103830002046FFF7D5FB002210212046FFF77AFB38
:10384000002210212046FFF7A3FB0BB030BD000083
:10385000000802400004004010B586B014216846FC
:10386000FCF704FD1020FFF7B3F901F0ABFA0022DA
:10387000042100F0E5F90146362001F0ABFA3620CC
:1038800001F086FA41F28730ADF800000020019087
:1038900041F61F40094C029069462046FFF7CEFBD7
:1038A000206820F080002060606820F07000606078
:1038B000A06820F08000A06006B010BD001000409D
:1038C00010B586B014216846FCF7D0FC2020FFF725
:1038D0007FF901F077FA0022032100F0B1F90146E7
:1038E000372001F077FA372001F052FA40F2CF206A
:1038F000ADF80000002001904CF24F30094C0290CE
:1039000069462046FFF79AFB206820F0800020607F
:10391000606820F070006060A06820F08000A06007
:1039200006B010BD0014004030B58DB0142106A8BB
:10393000FCF79CFC18216846FCF798FC32484FF4D1
:103940008035016841F480310160006800F4803006
:103950000B901020FFF724F9602000900220002433
:10396000CDE901040320CDE90440694603942748CA
:10397000FFF7A0F901F026FA0022062100F060F915
:103980000146182001F026FA182001F001FA4FF440
:103990003470ADF818004FF47A70CDE907400994FF
:1039A0001B4C06A92046FFF749FB206820F0800049
:1039B00020602A4601212046FFF78EFA00220121CD
:1039C0002046FFF70DFB002201212046FFF7B2FA47
:1039D000002201212046FFF7DBFA2A46102120466B
:1039E000FFF77AFA002210212046FFF7F9FA0022A9
:1039F00010212046FFF79EFA002210212046FFF7F3
:103A0000C7FA0DB030BD000044380240001002403B
:103A10000040014010B58EB01C216846FCF726FC22
:103A2000182107A8FCF722FC4FF40020FFF7DCF870
:103A30000120FFF7C1F803200221CDE9070100248E
:103A4000CDE9090401200B9008200C9007A9174824
:103A5000FFF730F9164800680022C0F30220012168
:103A600000F007F90146342001F0C4F9342001F0D8
:103A70009CF94FF4E130CDE900040C200294CDE92B
:103A80000340059406940B4C69462046FFF73AFB29
:103A9000206920F490402061606920F02A00606174
:103AA000E06840F40050E0600EB010BD000002403D
:103AB0000CED00E0004C00402DE9F0418EB01C21DF
:103AC00006A8FCF7D3FB18216846FCF7CFFB4FF4A0
:103AD0008010FFF789F80420FFF76EF80820FFF741
:103AE0006BF84FF480500226CDE90006032503AAA7
:103AF000002401274FF00808029582E890016946EA
:103B00001D48FFF7D7F80420CDE9000603AA029567
:103B100082E8900169461948FFF7CCF81848006818
:103B20000022C0F30220114600F0A3F80146352020
:103B300001F060F9352001F038F94FF4E130CDE9BA
:103B400006040C200894CDE909400B940C940D4C0C
:103B500006A92046FFF7D6FA206920F4904020619C
:103B6000606920F02A006061E06840F40050E06085
:103B70000EB0BDE8F081000000080240000C0240D9
:103B80000CED00E00050004010B58EB01C216846DE
:103B9000FCF76CFB182107A8FCF768FB23480168B9
:103BA00041F010010160006800F010000D9001204C
:103BB000FFF702F84FF4C06007900220089003203E
:103BC0000024CDE909040720CDE90B4007A91848D6
:103BD000FFF770F8174800680022C0F302200521A3
:103BE00000F047F80146252001F004F9252001F0F6
:103BF000DCF84FF4E130CDE900040C200294CDE96B
:103C00000340059406940C4C69462046FFF77AFA67
:103C1000206920F490402061606920F02A006061F2
:103C2000E06840F40050E0600EB010BD443802403F
:103C3000000002400CED00E000100140FEE770477C
:103C400030B500F00703C3F10704042C00D90424A5
:103C5000181D072801D2002300E0DB1E012505FA0C
:103C600004F0401E084098409D406D1E15402843BA
:103C700030BD30B500F00703C3F10704042C00D9B0
:103C80000424181D072801D2002300E0DB1E0125B3
:103C900005FA04F0401E084098409D406D1E1540F6
:103CA000284330BD7047000004490968044A01F008
:103CB000F0010909515CC840704700000838024013
:103CC000F558000804490968044A01F4E05102EB80
:103CD00091210978C840704708380240055900080A
:103CE00004490968044A01F4604102EB5131097842
:103CF000C840704708380240055900080948006864
:103D000010F00C0108480BD0042909D0082905D06F
:103D10000C2905D15FF00C0000F008B80820FBE783
:103D200070470000083802400024F40070B50546D2
:103D3000FFF7A0F8104C082D0DD0FFF793F8B4FB57
:103D4000F0F4FFF79FF84443FFF7A4F85FEA107020
:103D5000B4FBF0F070BDFFF785F8B4FBF0F4FFF7AB
:103D600091F8444305480068012100F4403001EB1C
:103D700010404000ECE700000024F400043802404A
:103D8000704700002DE9F047DFF89CA0DFF89C8029
:103D9000AAF53B74002604F5097704F124054FF0D9
:103DA000C04900BF5AF82610216137F81600A8F85C
:103DB00000006971020AAA71E87109EB4101637997
:103DC0001A4A1B48FEF76EF821781A4800F082FF65
:103DD00037F81620314618A000F0CAFF761C602E76
:103DE000E0DB62265AF82610216137F81600A8F8A1
:103DF00000006971020AAA71E87109EB4101637957
:103E00000A4A0B48FEF74EF821780A4800F062FF94
:103E100037F81620314608A000F0AAFF761E5F2E64
:103E2000E0DCBDE8F0870000F0020020EC1E00207E
:103E3000442000202800002053637265656E5F6493
:103E40006174615F6E6F775B25645D203D2025782E
:103E500020200D0A000000002DE9F05F4D4C0120EC
:103E60004FF0000AA06104F108005646A0F800A037
:103E70005746494D80464FF0C049C4F814A010E0A1
:103E80006169444A09EB410108324448A369FDF7DE
:103E9000EEFFB8F8000025F817006069401C7F1C91
:103EA000606160788742EBDBDFF8EC90002061789E
:103EB000A9F118090322B0461CE000BF90FBF2F301
:103EC00002FB1303012B14D1252812DA05EB40065F
:103ED00035F81030778836F8026C03EB0743642717
:103EE0007E43B6FBF3F329F81A300AF1010AC4F84D
:103EF0001C80401C8842E1DBB5F84A102162B5F80D
:103F00004800AA460C2803D0A178012932D02BE022
:103F1000234F0026A7F25445C4F80C8017F826005A
:103F2000687139F81600010AA971E87119482178F9
:103F3000243000F0CFFE761C0C2EEFDBBB460026B3
:103F40004FEA08070BEB860090F8300068711248C2
:103F5000AF714C30805DE8710E482178243000F05C
:103F6000B9FE761C0C2EEDDB6278002041465346EC
:103F70004C460AE00B28F7D1E068401CE060F3E70C
:103F800024F8101023F81010401C9042F8DBBDE814
:103F9000F09F0000040000207C1F0020442000202F
:103FA0007C0400202DE9F047DFF8E4A3BAF8000014
:103FB00000047DD5DFF8DC83F74CF84E98F800005C
:103FC0005A280BD198F801104046A52906D18188BE
:103FD00049BAE180B8F8070040BA3080E288F0487A
:103FE000012500274FF00209622A70D04FDC242AF5
:103FF0006ED017DCE749EB4B097A6AD2DFE802F0B2
:1040000069B8C4ECF7E9E8E7E6E5E4E3E269696981
:10401000E1E0DFDEDDDC696969696969696969694F
:10402000DBDAD9D8432A7CD018DC342A7AD00CDCED
:10403000312A78D004DC252A76D0302A49D1FAE119
:10404000322A72D0332AF9D110E2352A6ED0402AB2
:104050006DD0412A6CD0422AF0D135E2532A68D083
:104060000CDC502A7BD004DC442A79D0452A30D19C
:1040700045E2512A75D0522A2BD15CE2542A71D0E4
:10408000552A70D0602A6FD0612A22D181E2A02AFD
:104090006BD02EDC812A69D01CDC722A67D00DDC43
:1040A000652A6ED005DC632A6CD0642A11D18BE2BC
:1040B000F1E3702A67D0712A0BD1A1E2732A72D082
:1040C000742A71D0752A70D0802A02D1C9E269E2BF
:1040D0009DE167E0823A142A64D2DFE802F0F0EF53
:1040E000EEED63636363636363636363ECEBEAE96D
:1040F000E8E7B52A5AD01DDCB02A58D008DCA2F176
:10410000A102052A4ED2DFE802F0F3F2F1F0EF004F
:10411000B12A77D0B22A76D0B32A75D0B42A41D149
:104120007DE3DAE1ABE18FE17BE196E1B0E1B9E17A
:10413000C1E109E2C52A68D008DCA2F1C002052A63
:1041400030D2DFE802F0EEEDECEBEA00D02A73D0DB
:10415000D12A72D0D22A71D0F02A23D1E2E0D8E15C
:10416000C4E1DFE1F9E101E20AE2F1E283E250E2D7
:104170001970256165713188A0F890102B468A4925
:104180000CE02AE217E232E25970C4F8109065712F
:104190003188A0F8921084492B46891C7F4A8348B5
:1041A000FDF780FEC3E03EE247E250E241E30EE36A
:1041B00024E11AE110E106E1FCE0E0E0D6E0CCE029
:1041C000C2E0B8E07CE066E05AE04EE042E036E073
:1041D00027E01BE00BE0FFE7997003212161657187
:1041E0003188A0F8941070492B46091DD6E7D97084
:1041F0000421216165713188A0F896106A492B4627
:10420000891DCBE7EDE2F6E2FFE24FE319710521EC
:10421000216165713188A0F8981063492B460831F7
:10422000BCE759710621216165713188A0F89A10A7
:104230005D492B460A31B1E74DE05AE063E09971E0
:104240000721216165713188A0F89C1056492B46E1
:104250000C31A3E7D9710821216165713188A0F87B
:104260009E1051492B460E3198E7197209212161A0
:1042700065713188A0F8A0104B492B4610318DE7AD
:1042800059720A21216165713188A0F8A21046494E
:104290002B46123182E799720B21216165713188B9
:1042A000A0F8A41040492B46143177E747E23CE2DE
:1042B00031E226E21BE210E205E2FAE1EFE1E4E19D
:1042C000D9720C21216165713188A0F8A610364998
:1042D0002B46163162E7D021216165713188A0F843
:1042E000C0102B46324959E767E25DE24EE243E2F5
:1042F00038E2D121216165713188A0F8C2102C49C2
:104300002B46891C4AE7D221216165713188A0F8CA
:10431000C41027492B46091D40E7BDE2B1E2A6E2E1
:104320009BE290E2308808B1E57000E0E770E08839
:10433000D02875D0E2E210212161657131880180B9
:1043400019492B461E3129E71121216165713188F8
:10435000418015492B46203120E7122121616571EA
:104360003188818010492B46223117E713212161C2
:1043700065713188C1800C492B4624310EE7142128
:10438000216165713188018107492B46263105E796
:104390006007002018490020040000207C0700204E
:1043A00028020020C81F00200200006044200020D6
:1043B000A00100601521216165713188A0F8781095
:1043C0002B46F749EAE62021216165713188418158
:1043D000F3492B461631E1E62121216165713188CF
:1043E0008181EF492B461831D8E622212161657180
:1043F0003188C181EA492B461A31CFE62321216158
:10440000657131880182E6492B461C31C6E62421BC
:104410002161657131884182E1492B461E31BDE63B
:104420004EE22521216165713188A0F87A10DC49BE
:104430002B462031B2E630212161657131888182BD
:10444000D7492B463631A9E6312121616571318882
:10445000C182D3492B463831A0E6322121616571F2
:1044600031880183CE492B463A3197E633212161C9
:10447000657131884183CA492B463C318EE634212F
:104480002161657131888183C5492B463E3185E6BE
:104490003521216165713188A0F87C10C0492B4617
:1044A00040317BE64021216165713188C183BC497F
:1044B0002B46563172E641212161657131880184B4
:1044C000B7492B46583169E642212161657131882F
:1044D0004184B3492B465A3160E64321216165711D
:1044E00031888184AE492B465C3157E644212161F5
:1044F00065713188C184AA492B465E314EE645215B
:10450000216165713188A0F87E10A5492B46603184
:1045100044E650212161657131880185A0492B460F
:1045200076313BE6512121616571318841859C4995
:104530002B46783132E652212161657131888185BF
:1045400097492B467A3129E65321216165713188DB
:10455000C18593492B467C3120E654212161657148
:10456000318801868E492B467E3117E6552121611F
:1045700065713188A0F8801089492B4680310DE69D
:104580006021216165713188418685492B469631CC
:1045900004E66121216165713188818680492B465D
:1045A0009831FBE56221216165713188C1867C49C2
:1045B0002B469A31F2E563212161657131880187CB
:1045C00077492B469C31E9E5642121616571318889
:1045D000418773492B469E31E0E565212161657174
:1045E0003188A0F882106E492B46A031D6E57021A3
:1045F000216165713188818769492B46B631CDE5E6
:104600007121216165713188C18765492B46B831B7
:10461000C4E57221216165713188A0F840106049BC
:104620002B46BA31BAE57321216165713188A0F852
:1046300042105B492B46BC31B0E5742121616571A4
:104640003188A0F8441056492B46BE31A6E57521A5
:10465000216165713188A0F8841051492B46C03121
:104660009CE58021216165713188A0F846104C4994
:104670002B46D63192E58121216165713188A0F800
:10468000481047492B46D83188E582212161657160
:104690003188A0F84A1042492B46DA317EE5832161
:1046A000216165713188A0F84C103D492B46DC3101
:1046B00074E58421216165713188A0F84E10384974
:1046C0002B46DE316AE58521216165713188A0F8CC
:1046D000861033492B46E03160E5902121616571F8
:1046E0003188A0F850102E492B46F63156E591211D
:1046F000216165713188A0F8521029492B46F831A3
:104700004CE59221216165713188A0F8541024494B
:104710002B46FA3142E59321216165713188A0F879
:1047200056101F492B46FC3138E5942121616571F3
:104730003188A0F858101A492B46FE312EE59521F4
:10474000216165713188A0F888102B46154925E54F
:10475000A021216165713188A0F85A1011492B46BA
:1047600016311BE5A121216165713188A0F85C102B
:104770000C492B46183111E5A22121616571318860
:10478000A0F85E1007492B461A3107E5A3212161E5
:1047900065713188A0F8601002492B461C31FDE498
:1047A0002A0000602A010060A4212161657131881E
:1047B000A0F862102B465C49F0E4A52121616571E7
:1047C0003188A0F88A1058492B46891CE6E4B021AC
:1047D000216165713188A0F8641053492B46183166
:1047E000DCE4B121216165713188A0F866104E4981
:1047F0002B461A31D2E4B221216165713188A0F8CB
:10480000681049492B461C31C8E4B3212161657108
:104810003188A0F86A1044492B461E31BEE4B42109
:10482000216165713188A0F86C103F492B46203119
:10483000B4E4B521216165713188A0F88C103A4942
:104840002B462231AAE4C021216165713188A0F88C
:104850006E1035492B463831A0E4C12121616571C4
:104860003188A0F8701030492B463A3196E4C221C5
:10487000216165713188A0F872102B492B463C31BB
:104880008CE4C321216165713188A0F87410264938
:104890002B463E3182E444E0C421216165713188B8
:1048A000A0F8761020492B46403177E4C5212161DC
:1048B00065713188A0F88E101B492B4642316DE49A
:1048C00031881A48D12902D0D0290FD016E0A5701E
:1048D000217901B92571C16841F00101C160016808
:1048E00041F00101016084F8049007E0277101683C
:1048F00021F001010160A770FCF768F80C480D4A2F
:1049000041460780E78000204FF4167317540F5478
:1049100026F81070401C9842F8DB07480780AAF878
:104920000070BDE8F08700004801006000140040FE
:1049300064070020083B00205C0700202DE9F047B9
:10494000144D0120144F6871002405F1D40805F1BD
:104950002C0905F124064FF0C04A00BF58F8241076
:10496000296139F8140038807171020AB271F0714E
:104970000AEB41016B79084A0848FDF793FA0548AC
:104980002978243000F0A6F9641C542CE6DBBDE83D
:10499000F087000004000020EC1E002044200020CE
:1049A000FDF71AB9314810B5016821F00F0141F047
:1049B00002010160016801F00F010229FAD12C48BF
:1049C000016821F4404141F480410160016821F413
:1049D000803101602749086840F480300860086829
:1049E000C0F340400028FAD02248234A001D036843
:1049F000224C23401A430260026822F440320260D3
:104A0000026822F0E0420260086840F080700860AE
:104A10000868C0F340600028FAD0164808300168E2
:104A200021F0F0010160016821F4E05141F480516E
:104A30000160016821F460410160016821F0030117
:104A400041F002010160016801F00C010829FAD16E
:104A50000B48FEF73BFA0020FDF7E0F805488C30E4
:104A6000016821F08071016010BD0000003C02402F
:104A70000070004000380240102440000080BFFF5A
:104A800000A24A040548016841F47001016003492D
:104A90004FF00060803908607047000088ED00E04A
:104AA000704700F001B800000F4B1869C0F34000D8
:104AB00088B10E48002102680D481AB90D4A1278D3
:104AC000012A07D10C49802209698A4308494968AB
:104AD00008D0491C41606FF0020018616FF00400BB
:104AE00018617047491EF5E700040040F4040020F7
:104AF0005007002007000020000802400E486FF019
:104B000002010161C16841F00201C160016A41F026
:104B1000010101626FF004010161C16841F004010B
:104B2000C160016A41F010010162016841F00101B8
:104B3000016000214162704700040040AFF3008033
:104B40000B48016911F0010F10D00A490A8842F49C
:104B500000420A8008490A8842F400420A806FF045
:104B600001010161016821F001010160704700004D
:104B7000001000405C070020600700200648016923
:104B800011F0010F06D005490A88521E0A806FF005
:104B9000010101617047000000140040500700202F
:104BA000FFF7ECBFAFF300801F4910B50868C0F3F2
:104BB0004010002837D0C868C0F34010002832D019
:104BC0004868C3B219484288120428D4428840F683
:104BD000B834A2421BD2164A0024546244883CB91D
:104BE000D46844F00104D460146844F001041460F3
:104BF0004288104C1444521C428023700E4CC288D0
:104C0000A354521CC2804289521C428107E0428850
:104C100042F400424280C28842F40042C280C86826
:104C200040F02000C86010BD004C00405807002034
:104C30000014004098230020C0460020AFF30080FD
:104C40001F4910B50868C0F34010002837D0C86865
:104C5000C0F34010002832D04868C3B21948828897
:104C6000120428D4828840F6B834A2421BD2164AD5
:104C70000024546284883CB9D46844F00104D460B0
:104C8000146844F0010414608288104C1444521CCF
:104C9000828023700E4C0289A354521C02818289A7
:104CA000521C828107E0828842F40042828002899D
:104CB00042F400420281C86840F02000C86010BD84
:104CC000005000405807002000100040083B002022
:104CD0001849002010B50022064B07E0845C5C6098
:104CE0001C68C4F3C014002CFAD0521C8A42F5DBB5
:104CF00010BD000000500040AFF3008070B51849AF
:104D00000868C0F34010002824D0C868C0F34010E1
:104D100000281FD04868C3B212480288140415D472
:104D200055044FF0000404D50A2B0ED142F4004282
:104D300013E00D2B0FD0C2F30D050B4E521C92B297
:104D400073550280B2F5167F00D30480C86840F026
:104D50002000C86070BD42F480420280F6E7000087
:104D6000001001405807002040210020FEE700000D
:104D70000FB4054B10B503A9044A029800F01CF9C2
:104D800010BC5DF814FB00004D57000868070020B8
:104D9000002809DB00F01F0201219140400980003A
:104DA00000F1E020C0F800117047002809DB00F096
:104DB0001F02012191404009800000F1E020C0F86D
:104DC0000011704702480068C0F3022070470000DD
:104DD0000CED00E00907090E002804DB00F1E020DB
:104DE00080F80014704700F00F0000F1E02080F818
:104DF000141D70470907090E002804DB00F1E020AC
:104E000080F80014704700F00F0000F1E02080F8F7
:104E1000141D70470907090E002804DB00F1E0208B
:104E200080F80014704700F00F0000F1E02080F8D7
:104E3000141D704702E008C8121F08C1002AFAD1E9
:104E400070477047002001E001C1121F002AFBD10A
:104E5000704700002DE9FF5FDDE90220010DDDF85C
:104E600038B0024318D044F61050A1F2FF3141434C
:104E70000D140F98012820D0A5EB0B00401C5FEA11
:104E8000000A4FF00004474EDFF81C91A046504640
:104E900016D5CAF1000728E00F98012443A2012883
:104EA00008D0002100980F9BC0E90021C0E902430F
:104EB000BDE8FF9F6FEA0B01F4E7CBF10000DEE7EE
:104EC000074612E0F80707D02246334640464946D7
:104ED000FBF77EFA8046894622463346104619463D
:104EE000FBF776FA04460E467F10002FEAD1DDE983
:104EF0000201BAF1000F42464B4602DAFBF768FAAC
:104F000001E0FBF7EEFB04460E460022284BFBF7C0
:104F10006FFC03D84FF0FF30014607E00022254B1D
:104F200020463146FBF7ADF9FBF74AFC102409E0B7
:104F3000002C0ADB0A220023FBF760F9019B3032C8
:104F40001A55641E50EA0102F2D1641C019AC4F1A0
:104F5000110314440F9A012A03D0012208430DD1F2
:104F60000AE0084304D000204FF0110B0F9080E7B7
:104F7000A3EB0B056D1E0DE05B4504DD4FF0000259
:104F800005F1010504E003DA4FF00002A5F1010587
:104F9000002AECD000980F99C0E90231C0E9004521
:104FA00086E70000000024400000F03F30000000D1
:104FB0000000F0430000E03F2DE9FF4F95B09B4615
:104FC0008946064600250FE2252877D1002427468A
:104FD000F84A0121059400E0044316F8013F203B04
:104FE00001FA03F01042F7D130782A2811D06FF07F
:104FF0002F033078A0F13002092A16D8059A44F020
:10500000020402EB820203EB42021044761C05907C
:10501000EFE759F8042B0592002A03DA504244F4D2
:105020000054059044F00204761C30782E2816D1E6
:1050300016F8010F44F004042A280DD06FF02F0257
:105040003078A0F13003092B09D807EB870302EB76
:105050004303C718761CF3E759F8047B761C3078B5
:105060006C280FD006DC4C2817D068280DD06A2891
:1050700014D104E0742810D07A280FD10DE044F444
:1050800000140AE044F4801401E044F440147278FF
:10509000824202D104F58014761C761C3078662892
:1050A0000BD013DC582877D009DC002875D04528B0
:1050B000F6D04628F4D047281AD19DE118E063289D
:1050C00035D0642879D0652812D195E1702873D045
:1050D00008DC6728F1D069286FD06E280DD06F28C2
:1050E00006D1B5E073282CD0752875D0782874D0F7
:1050F0005A46179990476D1C75E1C4F30250022877
:1051000009D003280DD0D9F8001004280DD00D6067
:1051100009F1040967E1D9F80010EA17C1E9005262
:10512000F6E7D9F800100D80F2E70D70F0E719F8F6
:10513000041B8DF8001000208DF80100EA460120C4
:1051400003E059F804AB4FF0FF3061074FF0000166
:1051500002D40DE008F101018846B9420FDA80451A
:10516000F8DB1AF808100029F4D108E008F1010171
:1051700088468142FADB1AF808100029F6D1059812
:105180005B46A0EB080721463846179A00F094FAD0
:10519000284400EB080507E04DE029E10DE01AF88E
:1051A000010B5A4617999047B8F10108F7D25B46B0
:1051B00021463846179A13E142E00A220092C4F3CE
:1051C00002524FF0000A022A08D059F804CB032AF1
:1051D0004FEAEC710AD00DE029E02AE009F107015D
:1051E00021F00702F2E802C1914609E00FFA8CFCB7
:1051F0004FEAEC71042A03D14FFA8CFC4FEAEC71B0
:10520000002907DA0A460021DCF1000C61EB0201FB
:105210002D2202E0220504D52B228DF80420012244
:1052200003E0E20701D02022F7E7904659E00A2187
:1052300002E010220DE010214FF0000A00910BE077
:1052400010224FF0000A44F004040827009203E003
:1052500008224FF0000A0092C4F30252022A05D03D
:1052600059F804CB0021032A08D009E009F107010D
:1052700021F00702F2E802C1914605E01FFA8CFC1A
:10528000042A01D10CF0FF0C4FF00008220728D5AA
:10529000702806D0009B83F0100353EA0A0305D060
:1052A0000EE040228DF80420012208E05CEA0102B1
:1052B00006D030228DF804208DF805000222904699
:1052C000009B83F0080353EA0A030AD15CEA010257
:1052D00001D1620705D530228DF804204FF0010876
:1052E0007F1E582804D034A003900EA802900DE031
:1052F00036A0F9E753466046009AFAF77FFF8446E6
:105300000398825C0298401E029002705CEA0100E1
:10531000F0D1029806A9081A00F1200A600702D508
:1053200024F4803400E00127574502DDA7EB0A0092
:1053300000E0002000EB0A01009005984144401A6B
:105340000590E00306D45B462146179A059800F0C5
:10535000B3F90544002706E001A85A46C05D179935
:1053600090476D1C7F1C4745F6DBE0030CD55B4680
:105370002146179A059800F09FF9054404E0302073
:105380005A46179990476D1C0099481E00900029B5
:10539000F5DC08E0029802995A460078491C02910F
:1053A000179990476D1CBAF10001AAF1010AF1DCCE
:1053B00065E10000092801003031323334353637D9
:1053C0003839616263646566000000003031323351
:1053D00034353637383941424344454600000000F1
:1053E00000F058F90544761C307800287FF4ECADC5
:1053F00019B02846BDE8F08F620700D4062709F1EE
:10540000070222F0070CFCE80223E14603F0004803
:105410005FEA080C02D00FF2702C0DE05FEA045C2A
:1054200002D50FF2682C07E05FEAC47C02D00FF2CD
:10543000602C01E0AFF2700C4FF0FF3823F0004316
:10544000CDF850C065280CD006DC452809D0462888
:105450001DD047283DD13DE0662818D067287ED171
:1054600038E00021112F01DB112000E0781CCDE98C
:10547000000106A90EA8FFF7EDFCDDE90F010E9A69
:1054800003910021009207F1010A04914DE04FF0D1
:1054900000400097CDE9011006A90EA8FFF7DAFC3D
:1054A000DDE90F0203920E9B11990022DDF80CA09A
:1054B0000093049211B9791C00EB010AB7EB0A00C2
:1054C00004D4C0F1FF3007F1010A0490AAEB0700F1
:1054D000019044E0012F00DA01270021112F01DDA6
:1054E000112000E03846CDE9000106A90EA8FFF71B
:1054F000B1FCDDE90F010E9A0391002104910092A5
:10550000BA4621070CD40399514500DA8A46BAF10C
:10551000010F05DD009AAAF10101515C302908D084
:10552000B84202DA10F1040F06DA0121CDE90110C8
:1055300015E0AAF10101E9E7002805DC049901441E
:105540000491AAEB000102E0411C514500DD8A46AE
:105550000499401A401C01904FF00040029020072F
:1055600004D40198504501DBCDF8048000208DF86B
:105570004F0002980DF14F07B0F1004F25D02B20BE
:105580000E9002984FF0020800280CDA4042029078
:105590002D200E9007E00A210298FAF7C7FF30315C
:1055A000029007F8011DB8F10001A8F10108F2DC32
:1055B00002980028EFD1791E0E980870307800F01C
:1055C000200040F0450007F8020D12A8C01B00F1B2
:1055D00007081498007800B1012000EB0A01019837
:1055E00001EBE07105984144401A401E0590E0032C
:1055F00006D45B462146179A059800F05DF80544ED
:105600001498007818B15A46179990476D1CE0031A
:1056100024D55B462146179A059800F04DF80544BD
:105620001CE00498002807DBDDE90301884203DD64
:105630000098405C179901E0179930205A4690472E
:10564000049805F10105401C04900198401E01904A
:1056500004D12E205A46179990476D1CBAF10001CB
:10566000AAF1010ADDDC05E017F8010B5A4617998B
:1056700090476D1CB8F10001A8F10108F4DC5B460D
:105680002146179A0598ABE62D0000002B0000007C
:10569000200000002DE9F041044600251E46174673
:1056A000880404D405E039462020B0476D1C641EF0
:1056B000F9D52846BDE8F0812DE9F04104460025E2
:1056C0001E469046C80301D5302700E020278804F5
:1056D00004D505E041463846B0476D1C641EF9D537
:1056E0002846BDE8F081000010B504460420FCF710
:1056F000FAFB0148046010BD0000002070B50546AB
:1057000000244FF47A7603E0304600F005F8641C7C
:10571000AC42F9D370BD000070B54FF0E024002218
:1057200065690949A36909684843A1699942FCD0A0
:1057300002D2A3EB010302E0A5EB010633441A44B5
:105740000B468242F1D370BD0000002003490A6875
:105750005206FCD5C2B24A607047000000100140FA
:105760000025FCF741FAFFF71DF9FDF7BDFEFDF737
:1057700017FEFDF77FFEFEF707FAFEF7A1F8FDF72B
:10578000F1FDFEF799F9FDF775FDFDF7AFFFFDF7A8
:10579000EFFFFEF7C9F8FDF7C9FFFEF73BF9FEF78B
:1057A0005BF84820FFF7A0FF3D48C16841F02001A9
:1057B000C160C16841F48071C1603A48C16841F07C
:1057C0002001C160C16841F48071C160364C20681D
:1057D00020F440502060206840F480502060206811
:1057E00020F440202060206840F480202060402089
:1057F000A061C600A661FBF709FA2C480821816167
:105800008902A1612A4C4021A1610903816104211F
:105810008161284FBE614004A06180104FF4006A8E
:10582000A061C013A0618000A0611020B861202099
:10583000B861C000B861FFF761F94FF47A60FFF713
:105840005DFFFFF77BF8A3461B4EB9461B4C4FF498
:10585000FA780027307848B1FBF7B8F84FF00070BD
:10586000C9F81800CBF818A0002503E0322D0FD09E
:105870006D1CEDB2FEF796FBFEF7EEFA216841458E
:10588000E8D90FA0FFF774FAFEF77CFA2760E1E78A
:1058900010480025D0F8AC12C943C0F8AC12E9E7B3
:1058A000001001400050004000040240001002407F
:1058B000000C0240000802400600002010000020FA
:1058C000465047415F5245534554203D20256420B2
:1058D0000D0A000000804142102840587088A0B88E
:1058E000000000000404040000080000000800029A
:1058F0000406080A0C00000000000000000102037A
:10590000040607080900000000010203040000006B
:1059100030590008000000207C07000044080008FF
:10592000505B00087C070020F4470000444E00084C
:1059300012000100071C0826000001000120055A82
:10594000A5058208021532020116380314B80B02AD
:105950000314E803020314F40102022D00011210E3
:10596000AC1220B01230BC1240C012508C126090A9
:1059700012709412809812909C12A0A012B0A412DF
:10598000C02C12112C1221E012312C1241F01251B4
:105990002C12612C12712C12812C12912C12A1D07C
:1059A00012B13012C15C12125C36221014040000D5
:1059B000422012525C12625C12725C252912925CC7
:1059C00016A20012B23012C28C12138C12238C1247
:1059D000338C16435012538C12638C12738C1283C7
:1059E0008C12938C16A33012B33012C3BC1214BCA9
:1059F0001224BC1234BC1644801254BC1264BC1273
:105A000074BC1284BC1294BC16A46012B43012C4CC
:105A1000EC1215EC1225EC1235EC1645B01255ECD3
:105A20001265EC1275EC1285EC1295EC16A590122D
:105A3000B53012C50412E10412E20412E30412E4C8
:105A40000412E50412E60412E70412E80412E90461
:105A500012EA0412EB0452ECE825B6036CF4010AD6
:105A6000024D00015610EC5612945A14285621D0BB
:105A70005623785A300C5632B45A34485641F056B0
:105A800043985A502C5652D45A54685A611056634F
:105A9000B85A704C5672F45A74885A81305683D86A
:105AA0005A906C5A92145A94A85AA15056A3F85A74
:105AB000B08C5AB2345AB4C85AC1700A35C3182DC2
:105AC00008041E0214041E0318041E041C041E05F0
:105AD00020041E0624042E07280415401609441627
